:0400000043EF0EF0CC
:10100000003738392F3435362A3132332D23303DED
:101010002B0061EC0DF0000E5C6E320E5D6E300E3A
:10102000556E4C0E566E5CEC0CF0616E4C04D8A400
:101030001CEF08F01EEF08F020EF08F0010E5C6EC8
:101040005C04D8A426EF08F028EF08F0BBEF0AF004
:10105000000E5B6EB2EF0AF0090E5A6EA70EE82E74
:10106000FED75A2EFCD70000380E4D6E010E4E6E84
:1010700072EC0BF0616E1F0E556E60C04DF04E6A43
:10108000000E506E0A0E4F6EFAEC0BF04D50566E7D
:101090009EEC0DF0616E090E5A6EA70EE82EFED77B
:1010A0005A2EFCD70000380E4D6E000E4E6E72ECBC
:1010B0000BF0616E370E4D6E010E4E6E72EC0BF042
:1010C000616E1F0E556E60C04DF04E6A000E506E80
:1010D0000A0E4F6EB5EC0CF04D50566E9EEC0DF0B6
:1010E000616E090E5A6EA70EE82EFED75A2EFCD757
:1010F0000000370E4D6E000E4E6E72EC0BF0616EFE
:10110000360E4D6E010E4E6E72EC0BF0616E1F0EC0
:10111000556E5FC04DF04E6A000E506E0A0E4F6E57
:10112000FAEC0BF04D50566E9EEC0DF0616E090E10
:101130005A6EA70EE82EFED75A2EFCD70000360EA8
:101140004D6E000E4E6E72EC0BF0616E350E4D6EF4
:10115000010E4E6E72EC0BF0616E1F0E556E5FC08D
:101160004DF04E6A000E506E0A0E4F6EB5EC0CF04C
:101170004D50566E9EEC0DF0616E090E5A6EA70E24
:10118000E82EFED75A2EFCD70000350E4D6E000E0D
:101190004E6E72EC0BF0616E340E4D6E010E4E6EA3
:1011A00072EC0BF0616E1F0E556E5EC04DF04E6A14
:1011B000000E506E0A0E4F6EFAEC0BF04D50566E4C
:1011C0009EEC0DF0616E090E5A6EA70EE82EFED74A
:1011D0005A2EFCD70000340E4D6E000E4E6E72EC8F
:1011E0000BF0616E330E4D6E010E4E6E72EC0BF015
:1011F000616E1F0E556E5EC04DF04E6A000E506E51
:101200000A0E4F6EB5EC0CF04D50566E9EEC0DF084
:10121000616E090E5A6EA70EE82EFED75A2EFCD725
:101220000000330E4D6E000E4E6E72EC0BF0616ED0
:101230002A0E556E480E566E5CEC0CF0616E48043A
:10124000D8A425EF09F027EF09F02BEF09F0050EE0
:101250005D6E35EF09F04850D8A431EF09F033EF57
:1012600009F035EF09F0320E5D6E270E556E490E0E
:10127000566E5CEC0CF0616E4904D8A442EF09F0A4
:1012800044EF09F04EEF0AF0090E5A6EA70EE82E51
:10129000FED75A2EFCD70000380E4D6E010E4E6E52
:1012A00072EC0BF0616E1F0E556E60C04DF04E6A11
:1012B000000E506E0A0E4F6EFAEC0BF04D50566E4B
:1012C0009EEC0DF0616E090E5A6EA70EE82EFED749
:1012D0005A2EFCD70000380E4D6E000E4E6E72EC8A
:1012E0000BF0616E370E4D6E010E4E6E72EC0BF010
:1012F000616E1F0E556E60C04DF04E6A000E506E4E
:101300000A0E4F6EB5EC0CF04D50566E9EEC0DF083
:10131000616E090E5A6EA70EE82EFED75A2EFCD724
:101320000000370E4D6E000E4E6E72EC0BF0616ECB
:10133000360E4D6E010E4E6E72EC0BF0616E1F0E8E
:10134000556E5FC04DF04E6A000E506E0A0E4F6E25
:10135000FAEC0BF04D50566E9EEC0DF0616E090EDE
:101360005A6EA70EE82EFED75A2EFCD70000360E76
:101370004D6E000E4E6E72EC0BF0616E350E4D6EC2
:10138000010E4E6E72EC0BF0616E1F0E556E5FC05B
:101390004DF04E6A000E506E0A0E4F6EB5EC0CF01A
:1013A0004D50566E9EEC0DF0616E090E5A6EA70EF2
:1013B000E82EFED75A2EFCD70000350E4D6E000EDB
:1013C0004E6E72EC0BF0616E340E4D6E010E4E6E71
:1013D00072EC0BF0616E1F0E556E5EC04DF04E6AE2
:1013E000000E506E0A0E4F6EFAEC0BF04D50566E1A
:1013F0009EEC0DF0616E090E5A6EA70EE82EFED718
:101400005A2EFCD70000340E4D6E000E4E6E72EC5C
:101410000BF0616E330E4D6E010E4E6E72EC0BF0E2
:10142000616E1F0E556E5EC04DF04E6A000E506E1E
:101430000A0E4F6EB5EC0CF04D50566E9EEC0DF052
:10144000616E090E5A6EA70EE82EFED75A2EFCD7F3
:101450000000330E4D6E000E4E6E72EC0BF0616E9E
:10146000300E556E4C0E566E5CEC0CF0616E240E18
:10147000556E4A0E566E5CEC0CF0616E4C04D8B49E
:1014800044EF0AF046EF0AF04EEF0AF04A04D8A4FF
:101490004CEF0AF04EEF0AF044EF09F02D0E556EB6
:1014A0004B0E566E5CEC0CF0616E4B04D8A45BEFF7
:1014B0000AF05DEF0AF09CEF0AF0380E4D6E000E58
:1014C0004E6E72EC0BF0616E370E4D6E000E4E6E6E
:1014D00072EC0BF0616E360E4D6E000E4E6E72ECBD
:1014E0000BF0616E350E4D6E000E4E6E72EC0BF011
:1014F000616E340E4D6E000E4E6E72EC0BF0616E2E
:10150000330E4D6E000E4E6E72EC0BF0616E000EDF
:10151000606E000E5F6E000E5E6E300E556E4C0EED
:10152000566E5CEC0CF0616E4C04D8A49AEF0AF095
:101530009CEF0AF05DEF0AF0240E556E4A0E566ECF
:101540005CEC0CF0616E4A04D8A4A9EF0AF0ABEF92
:101550000AF0B1EF0AF0000E606E000E5F6E000E32
:101560005E6E5B2A5B505D5CD8B0B9EF0AF0BBEFF2
:101570000AF02CEF08F05E2A3C0E5E18D8A4C3EFE8
:101580000AF0C5EF0AF0C8EF0AF05F2A000E5E6E9F
:101590003C0E5F18D8A4CFEF0AF0D1EF0AF0D4EFD9
:1015A0000AF0602A000E5F6E630E6064DAEF0AF0E4
:1015B000DCEF0AF00FEF08F0000E606E0FEF08F09E
:1015C00000EF00F04D50D8B4E8EF0AF0EAEF0AF06F
:1015D000FAEF0AF04D50D96EDA6ADF30E832E832BD
:1015E000070B4E6E070E4E64F8EF0AF0FAEF0AF0A2
:1015F00051EF0BF071EF0BF04D50D96EDA6ADF301E
:10160000E832E832070B4E6E010E4F6E4E2A0BEF9A
:101610000BF0D8904F364E2E09EF0BF04F50FF0ACB
:10162000506E4D50D96EDA6ADF50070B020DF35041
:10163000150FD96EDA6ADECF51F0DDCF52F051C00E
:10164000D9FF52C0DAFF5050DF1671EF0BF04D504A
:10165000D96EDA6ADF30E832E832070B4E6E010EDF
:101660004F6E4E2A36EF0BF0D8904F364E2E34EF99
:101670000BF04D50D96EDA6ADF50070B020DF350B4
:10168000150FD96EDA6ADECF50F0DDCF51F050C0C1
:10169000D9FF51C0DAFF4F50DF1271EF0BF071EF3D
:1016A0000BF04D50D96EDA6ADFBE59EF0BF05CEFEC
:1016B0000BF0010E5DEF0BF0000E4E6E4F6A4F50B7
:1016C000000AD8B466EF0BF04FEF0BF04E50000A53
:1016D000D8B4FCEF0AF0010AD8B427EF0BF04FEFB3
:1016E0000BF01200010E546E4D50D8B47AEF0BF08F
:1016F0007CEF0BF08CEF0BF04D50D96EDA6ADF30D7
:10170000E832E832070B4F6E070E4F648AEF0BF09A
:101710008CEF0BF0E3EF0BF0000E546EF8EF0BF0D4
:101720004D50D96EDA6ADF30E832E832070B4F6E7F
:10173000010E506E4F2A9FEF0BF0D89050364F2E6F
:101740009DEF0BF05050FF0A516E4D50D96EDA6A82
:10175000DF50070B020DF3500B0FD96EDA6ADECFA4
:1017600052F0DDCF53F052C0D9FF53C0DAFF5150D1
:10177000DF16F8EF0BF04D50D96EDA6ADF30E83241
:10178000E832070B4F6E010E506E4F2ACAEF0BF076
:10179000D89050364F2EC8EF0BF04D50D96EDA6A04
:1017A000DF50070B020DF3500B0FD96EDA6ADECF54
:1017B00051F0DDCF52F051C0D9FF52C0DAFF505086
:1017C000DF12F8EF0BF04E504F6E506A5050000A87
:1017D000D8B4EDEF0BF08CEF0BF04F50000AD8B4FB
:1017E00090EF0BF0010AD8B4BBEF0BF08CEF0BF0CD
:1017F00054501200000E526E50BE03EF0CF001EF79
:101800000CF009EF0CF04F6C501ED8B0502A010EAE
:10181000526E4EBE10EF0CF00EEF0CF016EF0CF007
:101820004D6C4E1ED8B04E2A010E521A000E546E48
:10183000000E536E4F505010D8B421EF0CF023EF30
:101840000CF04BEF0CF0010E516E2BEF0CF0D8901A
:101850004F365036512A50AE30EF0CF032EF0CF0CC
:1018600027EF0CF0D890533654364F504D5C505003
:101870004E58D8A03EEF0CF040EF0CF045EF0CF0C6
:101880004F504D5E50504E5A5380D89050324F3288
:10189000512E32EF0CF05250D8B451EF0CF053EF00
:1018A0000CF057EF0CF0536C541ED8B0542A53C0B0
:1018B0004DF054C04EF01200000E596E5550D8B481
:1018C00064EF0CF066EF0CF06EEF0CF05650D8A4FD
:1018D0006CEF0CF06EEF0CF072EF0CF0000E586E27
:1018E000B3EF0CF055C04DF0590E4E6E0DEC0DF0EF
:1018F0005550D96EDA6A020ED926DE04D8A483EFD9
:101900000CF085EF0CF09AEF0CF05950D8A48BEF47
:101910000CF08DEF0CF093EF0CF05650D96EDA6AA4
:10192000DF6AB1EF0CF05650D96EDA6A010EDF6E45
:10193000B1EF0CF05550D96EDA6A020ED926DF509D
:10194000D8A4A5EF0CF0A7EF0CF0B1EF0CF05950B4
:10195000D8A4ADEF0CF0AFEF0CF08DEF0CF093EFDF
:101960000CF0010E586E58501200000E526E4EBE12
:10197000BEEF0CF0BCEF0CF0C4EF0CF04D6C4E1E43
:10198000D8B04E2A010E526E50BECBEF0CF0C9EF0C
:101990000CF0CFEF0CF04F6C501ED8B0502A4F50C7
:1019A0005010D8B4D6EF0CF0D8EF0CF0FCEF0CF0E0
:1019B000010E516EE0EF0CF0D8904F365036512AA0
:1019C00050AEE5EF0CF0E7EF0CF0DCEF0CF04F5011
:1019D0004D5C50504E58D8A0F0EF0CF0F2EF0CF0E8
:1019E000F6EF0CF04F504D5E50504E5AD89050329A
:1019F0004F32512EE7EF0CF05250D8B402EF0DF0F9
:101A000004EF0DF008EF0DF04D6C4E1ED8B04E2ACD
:101A10004DC04DF04EC04EF012004D50D8B413EFF3
:101A20000DF015EF0DF02DEF0DF04D50D96EDA6A77
:101A3000DF30E832E832070B4F6E080E4F6023EFBD
:101A40000DF025EF0DF02DEF0DF04E50D8A42BEF3B
:101A50000DF02DEF0DF031EF0DF0000E546E5FEF35
:101A60000DF04E50D96EDA6A4D50E16EE26AE750E1
:101A7000070B020DF350010FE16EE26AE6CF4FF063
:101A8000E5CF50F04FC0E1FF50C0E2FFE750516E8C
:101A90004D50E16EE26AE730E832E832070B526EF1
:101AA000010E536E522A57EF0DF0D8905336522E36
:101AB00055EF0DF053505114DF6E010E546E54501B
:101AC0001200380E556ED9EC0DF0596E370E556E6A
:101AD000D9EC0DF0596E360E556ED9EC0DF0596EED
:101AE000350E556ED9EC0DF0596E340E556ED9EC9D
:101AF0000DF0596E330E556ED9EC0DF0596E1F0E68
:101B0000576E01EC0EF0596E300E536E5EEC0EF017
:101B1000596E2D0E536E5EEC0EF0596E270E536EFD
:101B20005EEC0EF0596E2A0E536E5EEC0EF0596E9E
:101B3000240E536E5EEC0EF0596E12005550D8B460
:101B4000A4EF0DF0A6EF0DF0AEEF0DF0090E566408
:101B5000ACEF0DF0AEEF0DF0B2EF0DF0000E576EE2
:101B6000D7EF0DF055C04DF05650010B4E6E72EC94
:101B70000BF055284D6ED8905630010B4E6E72EC1E
:101B80000BF05550020F4D6E5640E8423F0B010BD3
:101B90004E6E72EC0BF05550030F4D6E5638E84602
:101BA0001F0B010B4E6E72EC0BF0010E576E57506F
:101BB00012005550D8B4DFEF0DF0E1EF0DF0F1EF6A
:101BC0000DF05550D96EDA6ADF30E832E832070B93
:101BD000566E070E5664EFEF0DF0F1EF0DF0F3EFD8
:101BE0000DF0FFEF0DF055C04DF0E2EC0AF055C0DE
:101BF0004DF0000E4E6E72EC0BF0F1EF0DF0000E9A
:101C000012005750D8A407EF0EF009EF0EF00DEFB9
:101C10000EF0000E586E25EF0EF057C055F0D9ECBF
:101C20000DF0586E5728556ED9EC0DF0586E575080
:101C3000020F556ED9EC0DF0586E5750030F556ECC
:101C4000D9EC0DF0586E010E586E58501200800FEE
:101C5000810F820F830F840F890F8A0F8B0F8C0FD8
:101C60008D0F920F930F940F950F960F020A121A71
:101C700000BA0001B20001AA0001B30001A20001F4
:101C80002B231B130B034E0EF66E1C0EF76E000E6D
:101C9000F86E00EE01F010EE38F00900F5CFEEFF1F
:101CA000E550E150FAE100EE39F0140EEE6AE80674
:101CB000FDE1000EF86E000109EF08F05350D8A4C2
:101CC00064EF0EF066EF0EF06AEF0EF0000E546E49
:101CD00070EF0EF053C04DF0E2EC0AF0010E546EBE
:041CE000545012004A
:020000040030CA
:0E000000FF02091EFF8181FF0FC00FE00F40BD
:00000001FF
